{
  "contractName": "CommentFactory",
  "abi": [
    {
      "constant": true,
      "inputs": [],
      "name": "owner",
      "outputs": [
        {
          "name": "",
          "type": "address"
        }
      ],
      "payable": false,
      "stateMutability": "view",
      "type": "function"
    },
    {
      "constant": false,
      "inputs": [
        {
          "name": "newOwner",
          "type": "address"
        }
      ],
      "name": "transferOwnership",
      "outputs": [],
      "payable": false,
      "stateMutability": "nonpayable",
      "type": "function"
    },
    {
      "anonymous": false,
      "inputs": [
        {
          "indexed": true,
          "name": "previousOwner",
          "type": "address"
        },
        {
          "indexed": true,
          "name": "newOwner",
          "type": "address"
        }
      ],
      "name": "OwnershipTransferred",
      "type": "event"
    },
    {
      "constant": false,
      "inputs": [
        {
          "name": "_name",
          "type": "string"
        }
      ],
      "name": "createProgram",
      "outputs": [],
      "payable": false,
      "stateMutability": "nonpayable",
      "type": "function"
    },
    {
      "constant": false,
      "inputs": [
        {
          "name": "programId",
          "type": "uint256"
        },
        {
          "name": "_score",
          "type": "uint8"
        },
        {
          "name": "_content",
          "type": "string"
        }
      ],
      "name": "comment",
      "outputs": [],
      "payable": false,
      "stateMutability": "nonpayable",
      "type": "function"
    },
    {
      "constant": false,
      "inputs": [
        {
          "name": "programId",
          "type": "uint256"
        }
      ],
      "name": "getProgramAverageScore",
      "outputs": [
        {
          "name": "",
          "type": "uint256"
        }
      ],
      "payable": false,
      "stateMutability": "nonpayable",
      "type": "function"
    }
  ],
  "bytecode": "0x6060604052336000806101000a81548173ffffffffffffffffffffffffffffffffffffffff021916908373ffffffffffffffffffffffffffffffffffffffff1602179055506108b3806100536000396000f30060606040526004361061006d576000357c0100000000000000000000000000000000000000000000000000000000900463ffffffff1680635bfb129f146100725780638afaa0c4146100e45780638da5cb5b14610141578063f2fde38b14610196578063fd3a265b146101cf575b600080fd5b341561007d57600080fd5b6100e2600480803590602001909190803560ff1690602001909190803590602001908201803590602001908080601f01602080910402602001604051908101604052809392919081815260200183838082843782019150505050505091905050610206565b005b34156100ef57600080fd5b61013f600480803590602001908201803590602001908080601f01602080910402602001604051908101604052809392919081815260200183838082843782019150505050505091905050610255565b005b341561014c57600080fd5b6101546102bc565b604051808273ffffffffffffffffffffffffffffffffffffffff1673ffffffffffffffffffffffffffffffffffffffff16815260200191505060405180910390f35b34156101a157600080fd5b6101cd600480803573ffffffffffffffffffffffffffffffffffffffff169060200190919050506102e1565b005b34156101da57600080fd5b6101f06004808035906020019091905050610436565b6040518082815260200191505060405180910390f35b60006102128383610524565b9050836005600083815260200190815260200160002081905550600660008581526020019081526020016000206000815480929190600101919050555050505050565b6000809054906101000a900473ffffffffffffffffffffffffffffffffffffffff1673ffffffffffffffffffffffffffffffffffffffff163373ffffffffffffffffffffffffffffffffffffffff161415156102b057600080fd5b6102b981610669565b50565b6000809054906101000a900473ffffffffffffffffffffffffffffffffffffffff1681565b6000809054906101000a900473ffffffffffffffffffffffffffffffffffffffff1673ffffffffffffffffffffffffffffffffffffffff163373ffffffffffffffffffffffffffffffffffffffff1614151561033c57600080fd5b600073ffffffffffffffffffffffffffffffffffffffff168173ffffffffffffffffffffffffffffffffffffffff161415151561037857600080fd5b8073ffffffffffffffffffffffffffffffffffffffff166000809054906101000a900473ffffffffffffffffffffffffffffffffffffffff1673ffffffffffffffffffffffffffffffffffffffff167f8be0079c531659141344cd1fd0a4f28419497f9722a3daafe3b4186f6b6457e060405160405180910390a3806000806101000a81548173ffffffffffffffffffffffffffffffffffffffff021916908373ffffffffffffffffffffffffffffffffffffffff16021790555050565b6000806000806000925060009150600090505b6001805490508110156104fb5784600560008381526020019081526020016000205414156104ee5760018181548110151561048057fe5b9060005260206000209060030201600201546001828154811015156104a157fe5b906000526020600020906003020160000160009054906101000a900460ff1660ff1602830192506001818154811015156104d757fe5b906000526020600020906003020160020154820191505b8080600101915050610449565b600082141561050d576000935061051c565b818381151561051857fe5b0493505b505050919050565b600080600180805480600101828161053c91906106c2565b916000526020600020906003020160006060604051908101604052808960ff1681526020018881526020016001815250909190915060008201518160000160006101000a81548160ff021916908360ff16021790555060208201518160010190805190602001906105ae9291906106f4565b50604082015181600201555050039050336003600083815260200190815260200160002060006101000a81548173ffffffffffffffffffffffffffffffffffffffff021916908373ffffffffffffffffffffffffffffffffffffffff160217905550600460003373ffffffffffffffffffffffffffffffffffffffff1673ffffffffffffffffffffffffffffffffffffffff168152602001908152602001600020600081548092919060010191905055508091505092915050565b6002805480600101828161067d9190610774565b9160005260206000209001600060206040519081016040528085815250909190915060008201518160000190805190602001906106bb9291906106f4565b5050505050565b8154818355818115116106ef576003028160030283600052602060002091820191016106ee91906107a0565b5b505050565b828054600181600116156101000203166002900490600052602060002090601f016020900481019282601f1061073557805160ff1916838001178555610763565b82800160010185558215610763579182015b82811115610762578251825591602001919060010190610747565b5b50905061077091906107eb565b5090565b81548183558181151161079b5781836000526020600020918201910161079a9190610810565b5b505050565b6107e891905b808211156107e457600080820160006101000a81549060ff02191690556001820160006107d3919061083f565b6002820160009055506003016107a6565b5090565b90565b61080d91905b808211156108095760008160009055506001016107f1565b5090565b90565b61083c91905b80821115610838576000808201600061082f919061083f565b50600101610816565b5090565b90565b50805460018160011615610100020316600290046000825580601f106108655750610884565b601f01602090049060005260206000209081019061088391906107eb565b5b505600a165627a7a72305820de8eb9334d6ca85d954b85c302d250a12878b94206b890d17733ecc0d51188790029",
  "source": "pragma solidity ^0.4.19;\r\n\r\nimport \"./Ownable.sol\";\r\n\r\ncontract CommentFactory is Ownable {\r\n    // 分值（1-10） 评论内容\r\n    struct Comment {\r\n        uint8 score;\r\n        string contect;\r\n        uint weight;\r\n    }\r\n\r\n    // 节目\r\n    struct Program {\r\n        string name;\r\n    }\r\n\r\n    Comment[] comments;\r\n    Program[] programs;\r\n\r\n    // 评论与人员关系\r\n    mapping (uint => address) commentToUser;\r\n    mapping (address => uint) userToCount;\r\n\r\n    // 评论与项目关系\r\n    mapping (uint => uint) commentToPragram;\r\n    mapping (uint => uint) programToCount;\r\n    \r\n    function _createComment(uint8 _score, string _content) private returns (uint) {\r\n        uint commentId = comments.push(Comment(_score, _content, 1)) - 1;\r\n        commentToUser[commentId] = msg.sender;\r\n        userToCount[msg.sender]++;\r\n        return commentId;\r\n    }\r\n\r\n    function _createProgram(string _name) private {\r\n        programs.push(Program(_name));\r\n    }\r\n\r\n    // 创建节目\r\n    function createProgram(string _name) public onlyOwner {\r\n        _createProgram(_name);\r\n    }\r\n\r\n    // 评论节目\r\n    function comment(uint programId, uint8 _score, string _content) public {\r\n        uint commentId = _createComment(_score, _content);\r\n        commentToPragram[commentId] = programId;\r\n        programToCount[programId]++;\r\n    }\r\n\r\n    function getProgramAverageScore(uint programId) public returns (uint) {\r\n        uint fz = 0;\r\n        uint fm = 0;\r\n        for (uint i = 0; i < comments.length; i++) {\r\n            if (commentToPragram[i] == programId) {\r\n                fz += comments[i].score * comments[i].weight;\r\n                fm += comments[i].weight;\r\n            }\r\n        }\r\n\r\n        if (fm == 0) {\r\n            return 0;\r\n        } else {\r\n            return fz / fm; // 保留1位小数\r\n        }\r\n    }\r\n}",
  "sourcePath": "C:\\BChain\\chain-comment\\contracts\\CommentFactory.sol",
  "compiler": {
    "name": "solc",
    "version": "0.4.21+commit.dfe3193c.Emscripten.clang"
  },
  "schemaVersion": "2.0.0",
  "updatedAt": "2018-04-13T11:54:21.764Z"
}