{
  "contractName": "CommentFactory",
  "abi": [
    {
      "anonymous": false,
      "inputs": [
        {
          "indexed": false,
          "name": "commentId",
          "type": "uint256"
        },
        {
          "indexed": false,
          "name": "score",
          "type": "uint8"
        },
        {
          "indexed": false,
          "name": "contect",
          "type": "string"
        },
        {
          "indexed": false,
          "name": "weight",
          "type": "uint256"
        }
      ],
      "name": "NewComment",
      "type": "event"
    },
    {
      "constant": false,
      "inputs": [
        {
          "name": "_name",
          "type": "string"
        }
      ],
      "name": "createProgram",
      "outputs": [],
      "payable": false,
      "stateMutability": "nonpayable",
      "type": "function"
    },
    {
      "constant": false,
      "inputs": [
        {
          "name": "programId",
          "type": "uint256"
        },
        {
          "name": "_score",
          "type": "uint8"
        },
        {
          "name": "_content",
          "type": "string"
        }
      ],
      "name": "comment",
      "outputs": [],
      "payable": false,
      "stateMutability": "nonpayable",
      "type": "function"
    },
    {
      "constant": true,
      "inputs": [
        {
          "name": "programId",
          "type": "uint256"
        }
      ],
      "name": "getProgramAverageScore",
      "outputs": [
        {
          "name": "",
          "type": "uint256"
        }
      ],
      "payable": false,
      "stateMutability": "view",
      "type": "function"
    }
  ],
  "bytecode": "0x6060604052341561000f57600080fd5b6107078061001e6000396000f300606060405260043610610057576000357c0100000000000000000000000000000000000000000000000000000000900463ffffffff1680635bfb129f1461005c5780638afaa0c4146100ce578063fd3a265b1461012b575b600080fd5b341561006757600080fd5b6100cc600480803590602001909190803560ff1690602001909190803590602001908201803590602001908080601f01602080910402602001604051908101604052809392919081815260200183838082843782019150505050505091905050610162565b005b34156100d957600080fd5b610129600480803590602001908201803590602001908080601f016020809104026020016040519081016040528093929190818152602001838380828437820191505050505050919050506101b1565b005b341561013657600080fd5b61014c60048080359060200190919050506101bd565b6040518082815260200191505060405180910390f35b600061016e83836102ab565b9050836004600083815260200190815260200160002081905550600560008581526020019081526020016000206000815480929190600101919050555050505050565b6101ba816104bd565b50565b6000806000806000925060009150600090505b6000805490508110156102825784600460008381526020019081526020016000205414156102755760008181548110151561020757fe5b90600052602060002090600302016002015460008281548110151561022857fe5b906000526020600020906003020160000160009054906101000a900460ff1660ff16028301925060008181548110151561025e57fe5b906000526020600020906003020160020154820191505b80806001019150506101d0565b600082141561029457600093506102a3565b818381151561029f57fe5b0493505b505050919050565b6000806000600660003373ffffffffffffffffffffffffffffffffffffffff1673ffffffffffffffffffffffffffffffffffffffff16815260200190815260200160002054141561033c576001600660003373ffffffffffffffffffffffffffffffffffffffff1673ffffffffffffffffffffffffffffffffffffffff168152602001908152602001600020819055505b6001600080548060010182816103529190610516565b916000526020600020906003020160006060604051908101604052808960ff168152602001888152602001600660003373ffffffffffffffffffffffffffffffffffffffff1673ffffffffffffffffffffffffffffffffffffffff16815260200190815260200160002054815250909190915060008201518160000160006101000a81548160ff021916908360ff1602179055506020820151816001019080519060200190610402929190610548565b50604082015181600201555050039050336002600083815260200190815260200160002060006101000a81548173ffffffffffffffffffffffffffffffffffffffff021916908373ffffffffffffffffffffffffffffffffffffffff160217905550600360003373ffffffffffffffffffffffffffffffffffffffff1673ffffffffffffffffffffffffffffffffffffffff168152602001908152602001600020600081548092919060010191905055508091505092915050565b600180548060010182816104d191906105c8565b91600052602060002090016000602060405190810160405280858152509091909150600082015181600001908051906020019061050f929190610548565b5050505050565b8154818355818115116105435760030281600302836000526020600020918201910161054291906105f4565b5b505050565b828054600181600116156101000203166002900490600052602060002090601f016020900481019282601f1061058957805160ff19168380011785556105b7565b828001600101855582156105b7579182015b828111156105b657825182559160200191906001019061059b565b5b5090506105c4919061063f565b5090565b8154818355818115116105ef578183600052602060002091820191016105ee9190610664565b5b505050565b61063c91905b8082111561063857600080820160006101000a81549060ff02191690556001820160006106279190610693565b6002820160009055506003016105fa565b5090565b90565b61066191905b8082111561065d576000816000905550600101610645565b5090565b90565b61069091905b8082111561068c57600080820160006106839190610693565b5060010161066a565b5090565b90565b50805460018160011615610100020316600290046000825580601f106106b957506106d8565b601f0160209004906000526020600020908101906106d7919061063f565b5b505600a165627a7a72305820375ef707f6f0cbf3a5a0b70cfcd0d7f911ebbabbd978c7d31b16c2f1e6d0e7d80029",
  "source": "pragma solidity ^0.4.19;\r\n\r\ncontract CommentFactory {\r\n    event NewComment(uint commentId, uint8 score, string contect, uint weight);\r\n\r\n    // 分值（1-10）评论内容\r\n    struct Comment {\r\n        uint8 score;\r\n        string contect;\r\n        uint weight;\r\n    }\r\n\r\n    // 节目\r\n    struct Program {\r\n        string name;\r\n    }\r\n\r\n    Comment[] comments;\r\n    Program[] programs;\r\n\r\n    // 评论与人员关系\r\n    mapping (uint => address) commentToUser;\r\n    mapping (address => uint) userToCount;\r\n\r\n    // 评论与项目关系\r\n    mapping (uint => uint) commentToPragram;\r\n    mapping (uint => uint) programToCount;\r\n\r\n    // 记录用户的权重\r\n    mapping (address => uint) userToWeight;\r\n    \r\n    function _createComment(uint8 _score, string _content) private returns (uint) {\r\n        if (userToWeight[msg.sender] == 0) {\r\n            userToWeight[msg.sender] = 1;\r\n        }\r\n\r\n        uint commentId = comments.push(Comment(_score, _content, userToWeight[msg.sender])) - 1;\r\n        commentToUser[commentId] = msg.sender;\r\n        userToCount[msg.sender]++;\r\n        return commentId;\r\n    }\r\n\r\n    function _createProgram(string _name) private {\r\n        programs.push(Program(_name));\r\n    }\r\n\r\n    // 创建节目\r\n    function createProgram(string _name) public {\r\n        _createProgram(_name);\r\n    }\r\n\r\n    // 评论节目\r\n    function comment(uint programId, uint8 _score, string _content) public {\r\n        uint commentId = _createComment(_score, _content);\r\n        commentToPragram[commentId] = programId;\r\n        programToCount[programId]++;\r\n    }\r\n\r\n    function getProgramAverageScore(uint programId) public view returns (uint) {\r\n        uint fz = 0;\r\n        uint fm = 0;\r\n        for (uint i = 0; i < comments.length; i++) {\r\n            if (commentToPragram[i] == programId) {\r\n                fz += comments[i].score * comments[i].weight;\r\n                fm += comments[i].weight;\r\n            }\r\n        }\r\n\r\n        if (fm == 0) {\r\n            return 0;\r\n        } else {\r\n            return fz / fm; // 保留1位小数\r\n        }\r\n    }\r\n}",
  "sourcePath": "C:\\BChain\\chain-comment\\contracts\\CommentFactory.sol",
  "compiler": {
    "name": "solc",
    "version": "0.4.21+commit.dfe3193c.Emscripten.clang"
  },
  "schemaVersion": "2.0.0",
  "updatedAt": "2018-04-13T12:26:15.195Z"
}